:100000000C9448010C9479010C9479010C947901B9
:100010000C9479010C9479010C9479010C94790178
:100020000C9479010C9479010C9479010C94790168
:100030000C9479010C9479010C9479010C94790158
:100040000C9479010C94E90B0C9479010C947901CE
:100050000C9479010C9479010C9479010C94F109B8
:100060000C9479010C9479010C9479010C94790128
:100070000C9479010C9479010C9479010C94790118
:100080000C94BB0B0C9479010C9479010C947901BC
:100090000C9479010C9479010C9479010C943B0A2D
:1000A0000C9479010C9479010C948D0B0C947901CA
:1000B0000C9479010C9479010C9479010C945F0BE8
:1000C0000C9479010C9479010C9479010C947901C8
:1000D0000C9479010C9479010C9479010C947901B8
:1000E0000C9479010C9417040C9481030C94320243
:1000F0000C943A040C942C020C9427040C94710276
:100100000C94170C0C9482030C943E020C946C0219
:100110000C9459020C9455020C9476030C943A02F8
:100120000C94C7100C9447020C9441040C943602B2
:100130000C946D020C94B0030C9441020C94830354
:100140000C9463020C947E030C9484050C945F025F
:100150000C9451020C946E040C9418040C944B02F1
:100160000C944A060C947A030C9467020000210058
:10017000240027002A002D00300033000101000078
:10018000040107010A0100002200250028002B00BD
:100190002E003100340002010000050108010B01AE
:1001A000000020002300260029002C002F00320030
:1001B0000001000003010601090105050505070509
:1001C00008080808020202020A0A080804040404D3
:1001D00001010101010101010303030303030303FF
:1001E000040707070C0C0C0C0C0C0C0C020202028E
:1001F00006060606060606060B0B0B0B0B0B0B0B77
:100200000102102020080810204010204080020128
:10021000020108040201010204081020408080400D
:10022000201008040201800402018040201008040C
:1002300002010804020101020408102040800102AA
:1002400004081020408000000A0B02090C0D0E0863
:10025000070304010000000000000000000000008F
:10026000000000000000000000000000000000008E
:10027000000012111000000000000000000000004B
:10028000000000000000000000000000170CC71074
:1002900011241FBECFEFD1E2DEBFCDBF00E00CBF07
:1002A00014E0A0E0B2E0EAE4FBE200E00BBF02C031
:1002B00007900D92A231B107D9F726E0A2E1B4E090
:1002C00001C01D92A630B207E1F711E0C7E4D1E00A
:1002D00000E006C021970109802FFE010E946513EE
:1002E000C634D10780E00807A9F70E949F0C0C9440
:1002F00093150C94000096E0899FD0011124A95712
:10030000BA4F90967C936E935F9791E091969C93F1
:100310009197E091F405F091F5059091F3059923FB
:1003200039F0309751F0811108C08091A3051994DC
:10033000309719F05C968C91FACF0895CF92DF92A6
:10034000EF92FF920F931F9396E0899FF001112483
:10035000E957FA4F11A2278D30A12130310551F113
:1003600078F02230310509F451C02330310509F409
:1003700052C01F910F91FF90EF90DF90CF900895A2
:100380006623B9F361E070E00E947B012FB7F89417
:100390008091650590916605A0916705B09168050B
:1003A0002FBF8093DF059093E005A093E105B09304
:1003B000E205DFCF9FB7F894C0906505D090660541
:1003C000E0906705F09068059FBF0091DF051091F0
:1003D000E0052091E1053091E205C01AD10AE20A58
:1003E000F30A0091F1051091F20530E020E00C15C0
:1003F0001D052E053F0550F462E070E01F910F913E
:10040000FF90EF90DF90CF900C947B016111B1CF02
:1004100063E070E0F3CF70E060E0F0CF81508231B4
:1004200008F05AC0E82FF0E08827E65EFD4F8F4FB6
:100430000C9465133A023E022C02320236026C0220
:10044000410247024B025102550259025F02630208
:100450006C0267026D027102809180008F77809339
:1004600080000895809180008F7DF9CF8091800079
:10047000877FF5CF84B58F7784BD089584B58F7D50
:10048000FBCF8091B0008F778093B000089580916A
:10049000B0008F7DF9CF809190008F77809390008E
:1004A0000895809190008F7DF9CF80919000877F93
:1004B000F5CF8091A0008F778093A0000895809160
:1004C000A0008F7DF9CF8091A000877FF5CF80912C
:1004D00020018F77809320010895809120018F7DE6
:1004E000F9CF80912001877FF5CFCF93DF93282F1D
:1004F00030E0F901EA5BFD4F8491F901E050FE4FD5
:10050000D491F901E654FE4FC491CC23A1F081119E
:100510000E940E02EC2FF0E0EE0FFF1FE056FE4FA0
:10052000A591B491EC91ED2381E090E009F480E095
:10053000DF91CF91089580E090E0FACF1F93CF93A1
:10054000DF93282F30E0F901EA5BFD4F8491F90138
:10055000E050FE4FD491F901E654FE4FC491CC23F4
:10056000A9F0162F81110E940E02EC2FF0E0EE0F81
:10057000FF1FEA57FE4FA591B4918FB7F894EC9105
:10058000111108C0D095DE23DC938FBFDF91CF918E
:100590001F910895DE2BF8CFCF93DF9390E0FC01FD
:1005A000E050FE4F249186549E4FFC018491882395
:1005B000C9F090E0880F991FFC01E459FE4FA59106
:1005C000B491FC01EA57FE4FC591D49161110DC061
:1005D0009FB7F8948C91209582238C93888128234F
:1005E00028839FBFDF91CF910895623051F49FB768
:1005F000F8943C91822F809583238C93E8812E2B55
:10060000EFCF8FB7F894EC912E2B2C938FBFEACFBE
:1006100090917B00977F90937B00865380648093BA
:100620007C0080917A00806480937A0080917A00C7
:1006300086FDFCCF809178009091790008953FB7B6
:10064000F8948091610590916205A0916305B09145
:10065000640526B5A89B05C02F3F19F00196A11D82
:10066000B11D3FBFBA2FA92F982F8827BC01CD01FC
:10067000620F711D811D911D42E0660F771F881F5B
:10068000991F4A95D1F708958F929F92AF92BF928A
:10069000CF92DF92EF92FF924B015C010E941F0309
:1006A0006B017C010E941F036C197D098E099F0953
:1006B000683E734081059105A8F321E0821A9108F4
:1006C000A108B10888EEC80E83E0D81EE11CF11C19
:1006D00081149104A104B10429F7FF90EF90DF90F9
:1006E000CF90BF90AF909F908F900895862F642FEA
:1006F0000C94CC02862F642F0C949E02862F0C94AF
:10070000750208950895AF92BF92CF92DF92EF9253
:10071000FF920F931F93CF93DF936C017B018B01AB
:10072000040F151FEB015E01AE18BF08C017D107FB
:1007300059F06991D601ED91FC910190F081E02D85
:10074000C6011995892B79F7C501DF91CF911F91CA
:100750000F91FF90EF90DF90CF90BF90AF900895F2
:1007600008952091E704260F3327331F21323105E6
:10077000ECF420913005FC0190E080E0243069F039
:1007800082E00895A091E7042191AC0149535B4FA9
:10079000A40FB52FB11D2C930196861798F3809165
:1007A000E704680F6093E70480E0089581E008950E
:1007B0001092300581E080932F0510920A0561E0C8
:1007C00084E10E949E0261E085E10E949E02E9EBC5
:1007D000F0E080818E7F808380818D7F808388E4BC
:1007E0008093B80085E48093BC000895CF93DF9395
:1007F00091E09093C6048823B9F0C091B800D091DD
:10080000BA008091BC008A7B8093BC0060E084E1E8
:100810000E949E0260E085E10E949E020E94D80331
:10082000D093BA00C093B800DF91CF910895089596
:10083000E0915F0580915E05E81730F4F0E0EA553D
:10084000FB4F808190E008958FEF9FEF0895909186
:100850005F0580915E052FEF3FEF981748F4E92F71
:10086000F0E0EA55FB4F208130E09F5F90935F05F9
:10087000C901089580915E0590915F05891B990BD0
:100880000895CF92DF92EF92FF920F931F93CF9331
:10089000DF937C01CB018A0120913605222389F068
:1008A000EB016B01C40ED51ECC15DD0569F0699115
:1008B000D701ED91FC910190F081E02DC7011995D0
:1008C000F3CF642F0E94B103C801DF91CF911F9134
:1008D0000F91FF90EF90DF90CF900895CF93DF932B
:1008E0001F92CDB7DEB76983209136052223F9F038
:1008F00020915C05203258F021E030E0FC01338388
:10090000228390E080E00F90DF91CF910895809155
:100910005D05E82FF0E0E95CFA4F998190838F5FE5
:1009200080935D0580935C0581E090E0ECCF61E011
:10093000CE0101960E94B103F7CFCF92DF92EF92E2
:10094000FF920F931F93CF93DF93FC01C48121E0AB
:1009500020933605C093570510925D0510925C05F3
:100960008385682B89E695E00E946E04D0915C0532
:10097000D13208F092C00E941F036B017C0180916C
:100980003005811165C082E08093300581E080935D
:100990002F058FEF80932E0510922D05D0932C05F7
:1009A000A7E3B5E0ECE0F5E080E0D81385C0109255
:1009B0000B0580910B05CC0FC82BC0930B058091C4
:1009C0000A05813009F07CC010920A050E941F03BD
:1009D0006B017C0180910B058093BB0080913205F7
:1009E00090913305A0913405B0913505892B8A2B60
:1009F0008B2B99F00E941F03009132051091330553
:100A000020913405309135056C197D098E099F09B7
:100A10000617170728073907E0F18091BC0083FD0E
:100A2000D9CF85EC8093BC000E941F036B017C0131
:100A300080913005823009F445C080912E058F3FAA
:100A400061F180912E05803241F180912E0525C003
:100A50008091320590913305A0913405B091350510
:100A6000892B8A2B8B2B09F48ACF0E941F030091BC
:100A700032051091330520913405309135056C19FC
:100A80007D098E099F09061717072807390708F0FF
:100A900076CF809131050E94F60310925D05109289
:100AA0005C0510923605DF91CF911F910F91FF9059
:100AB000EF90DF90CF9008959D9191938F5F75CFC8
:100AC00085EEB0CF8091320590913305A091340529
:100AD000B0913505892B8A2B8B2B09F4A9CF0E9465
:100AE0001F03009132051091330520913405309198
:100AF00035056C197D098E099F0906171707280708
:100B0000390708F095CFC5CF90E080E00895CF93E6
:100B1000DF93DB01EA01FC01EE55FB4F40815CE015
:100B2000589F9001599F300D112447FF1CC011960A
:100B30001C921E9280818F5F80838081A901480F63
:100B4000511D87FD5A9557FF03C080818C30ACF052
:100B50008D919C911197049680349C4938F18D9128
:100B60009C91049625C08081A901480F511D87FDE5
:100B70005A9557FFDFCF8081DDCF8D919C914081C9
:100B8000240F311D47FD3A95D901AA0FBB1FA20FB3
:100B9000B31FAE5EBB4F11962D913C91820F931FF8
:100BA000998388838081DF91CF91089580E49CE9C7
:100BB000998388838FEF8083F6CF0F931F93CF9312
:100BC0008C01C62F0E949D046C2F6460C8010E9496
:100BD0009D046C2F6B7FC8010E949D0483EC90E004
:100BE0000197F1F7CF911F910F9108950F931F93E4
:100BF000CF93DF938C01D62FC42F607F642B0E948C
:100C0000DD0580E1D89FB00111246C2BC801DF9174
:100C1000CF911F910F910C94DD05CF93DF9300D0FE
:100C200000D01F921F92CDB7DEB798E0EFE1F2E05F
:100C3000DE01119601900D929A95E1F79091FE05D3
:100C4000961710F46FEF690F262F30E0220F331F35
:100C500041E050E04C0F5D1F240F351FF90160810A
:100C6000680F606840E086EF95E028960FB6F8942C
:100C7000DEBF0FBECDBFDF91CF910C94F60540E0F3
:100C800061E086EF95E00E94F6058BE39FE1019716
:100C9000F1F7089541E00E94F60581E090E00895A3
:100CA00041E0682F86EF95E00E94F60581E090E034
:100CB0000895FC0101900020E9F73197AF01481B2E
:100CC000590BBC0186EF95E00C9483038F929F92A1
:100CD000AF92BF920F931F93CF93DF93CDB7DEB741
:100CE000A1970FB6F894DEBF0FBECDBF19A2423058
:100CF00008F44AE08E010F5D1F4F842E912CB12C19
:100D0000A12CA50194010E941C12E62FB901CA0171
:100D1000EA30F4F4E05DD801EE938D01232B242B0F
:100D2000252B79F790E080E0109719F0CD010E9413
:100D30005906A1960FB6F894DEBF0FBECDBFDF9166
:100D4000CF911F910F91BF90AF909F908F9008957A
:100D5000E95CE1CF0C9459060E943F0660E080E018
:100D60000E940D068FE492E00E94AA0689E20E948A
:100D700075020197E1F461E088E20E949E0261E061
:100D800080E00E940D068DE592E00E94AA0662E0D6
:100D900080E00E940D0687E692E00E94AA0663E0CA
:100DA00080E00E940D0683E792E00C94AA0660E0C2
:100DB00088E20E949E0261E080E00E940D0683E8C6
:100DC00092E0F3CF4F925F926F927F928F929F92B9
:100DD000AF92BF92CF92DF92EF92FF920F931F9349
:100DE000CF936B017C01742EAC019B010E946013B8
:100DF000882399F085E992E0CF911F910F91FF90A0
:100E0000EF90DF90CF90BF90AF909F908F907F90AA
:100E10006F905F904F900C94590646015701E894EB
:100E2000B7F82FEF3FEF4FE75FE7C501B4010E942E
:100E3000601381110DC02FEF3FEF4FE75FE7C50152
:100E4000B4010E94D91018161CF489E992E0D4CF9D
:100E50002FEF3FEF4FE75FE4C701B6010E945B133E
:100E600018161CF48DE992E0C7CF2FEF3FEF4FE744
:100E70005FECC701B6010E94D91087FDF3CF20E0D7
:100E800030E0A901C701B6010E94D91010E000E0CE
:100E900087FF08C08DE20E9450068C01F7FAF0949B
:100EA000F7F8F094C0E060E070E080E09FE37C162B
:100EB00041F020E030E040E251E40E94BA12CF5FFE
:100EC000F6CFA70196010E944E122B013C010E9411
:100ED0002C134B015C014AE00E9466067C01E00E87
:100EE000F11ECC23B1F1C501B4010E94DE109B01BB
:100EF000AC01C301B2010E944D124B015C018EE2B4
:100F00000E945006E80EF91EC15018F120E030E0B2
:100F100040E251E4C501B4010E943F112B013C01A4
:100F20000E942C134B01B12CA12C4AE0C501B40145
:100F30000E946606E80EF91EC501B4010E94DE108B
:100F40009B01AC01C301B2010E944D124B015C0137
:100F5000DBCFC701CF911F910F91FF90EF90DF90F2
:100F6000CF90BF90AF909F908F907F906F905F9049
:100F70004F900895CF92DF92EF92FF9289E00E9406
:100F80007502BC01990F880B990B0E94E0106B0150
:100F90007C010E943F0660E080E00E940D0681EA2D
:100FA00092E00E94AA0642E0C701B6010E94E20652
:100FB00020E030E040E85FE3C701B6010E94D910AD
:100FC00061E0811133C00E940D0681EB92E00E9426
:100FD000AA0662E080E00E940D068BEB92E00E9480
:100FE000AA0663E080E00E940D0686EC92E00E9473
:100FF000AA0661E085E30E949E0261E083E30E940D
:101000009E0260E084E30E949E0261E08CE10E9407
:101010009E0264E670E080E090E00E944403C70115
:10102000B601FF90EF90DF90CF90089580E00E948E
:101030000D0682ED92E00E94AA0662E080E00E9426
:101040000D068EED92E00E94AA0663E080E00E9409
:101050000D068AEE92E00E94AA0660E085E30E94F7
:101060009E0260E08CE10E949E02D9CFCF92DF9277
:10107000EF92FF9287E30E940803BC01990F880B4F
:10108000990B0E94E01020E030E040EA50E40E941A
:101090003F1120E030EC4FE754E40E94BA122AE0FE
:1010A00037ED43E25CE30E94BA126B017C010E94BF
:1010B0003F0660E080E00E940D0687EF92E00E940C
:1010C000AA0642E0C701B6010E94E20620E030E035
:1010D00040EF51E4C701B6010E945B1361E01816AE
:1010E00014F580E00E940D068EEF92E00E94AA06A1
:1010F00062E080E00E940D068FE093E00E94AA0665
:1011000061E080E30E949E0261E081E30E949E0212
:1011100060E082E30E949E02C701B601FF90EF905B
:10112000DF90CF90089580E00E940D0689E193E062
:101130000E94AA0662E080E00E940D068DE293E024
:101140000E94AA0660E080E3E5CF8F929F92AF9263
:10115000BF92CF92DF92EF92FF9286E30E94080344
:101160007C01BC01990F880B990B0E94E0104B0188
:101170005C0124E630E0D7010E946D132FEF33E0CD
:1011800040E050E00E94FD11CA01B9010E94E01048
:101190006B017C010E943F0660E080E00E940D062A
:1011A00088E393E00E94AA0642E0C701B6010E94CC
:1011B000E20683E493E00E94AA0620E030E040E2E9
:1011C00052E4C701B6010E94D91087FF2BC061E02D
:1011D00087E00E94CC0261E087E00E949E0261E00D
:1011E00089E10E949E0260E08AE10E949E0261E025
:1011F00080E00E940D0685E493E00E94AA0662E06A
:1012000080E00E940D0681E593E00E94AA06C501D8
:10121000B401FF90EF90DF90CF90BF90AF909F9080
:101220008F90089560E087E00E949E0261E080E078
:101230000E940D068DE593E00E94AA0662E080E020
:101240000E940D068CE693E0E0CFFC0124813581FD
:10125000FB014481558124173507E1F4FC018081AD
:101260009181FB01608171810097D1F06115710559
:10127000A1F4232BC1F0FC01808190E008C0232B56
:1012800091F0FB01808190E091958195910921E099
:10129000892B09F020E0822F08950E948315F7CF53
:1012A0006115710561F721E0F6CF0F931F93CF937E
:1012B000DF93EC0188819981009759F02A813B8165
:1012C0002617370730F081E0DF91CF911F910F9102
:1012D00008958B016F5F7F4F0E949914009759F01A
:1012E000998388831B830A832C813D81232B59F7A3
:1012F000FC011082E8CF80E0E7CFEF92FF920F93DE
:101300001F93CF93DF93EC017B01198218821B821C
:101310001A821D821C82FB0101900020E9F731979F
:101320008F01061B170BB8010E94550928813981CE
:10133000811113C02115310519F0C9010E94101443
:10134000198218821D821C821B821A82DF91CF9122
:101350001F910F91FF90EF9008951D830C83B701AB
:10136000C901DF91CF911F910F91FF90EF900C94E5
:101370008C1585ED8093BC008091320590913305EA
:10138000A0913405B09135050796A11DB11D23E04C
:10139000B695A795979587952A95D1F72091BC008A
:1013A00024FD03C0109230050895409132055091FC
:1013B00033056091340570913505452B462B472B3D
:1013C00069F30097A105B10541F02AE22A95F1F7EA
:1013D00000C00197A109B109E1CF809131050C94BA
:1013E000F6031F920F920FB60F9211242F933F9383
:1013F0008F939F93AF93BF938091650590916605FE
:10140000A0916705B09168053091600523E0230F36
:101410002D3758F50196A11DB11D209360058093CD
:10142000650590936605A0936705B0936805809164
:10143000610590916205A0916305B09164050196E4
:10144000A11DB11D8093610590936205A093630572
:10145000B0936405BF91AF919F918F913F912F9170
:101460000F900FBE0F901F90189526E8230F02963D
:10147000A11DB11DD2CF1F920F920FB60F92112452
:101480000BB60F922F933F934F935F936F937F937E
:101490008F939F93AF93BF93EF93FF938091B90086
:1014A000887F803609F44DC008F040C0883209F4C6
:1014B000A9C028F5803109F49DC0C8F4882309F437
:1014C000FBC0883009F496C0FF91EF91BF91AF91B6
:1014D0009F918F917F916F915F914F913F912F914C
:1014E0000F900BBE0F900FBE0F901F901895883174
:1014F00009F488C0803241F780932E0514C08034EF
:1015000009F49DC040F48033B9F38833E9F6809341
:101510002E0585ECB0C0803509F485C0883509F406
:1015200096C0883489F60E94B909CECF883909F46B
:101530008CC038F5883729F050F4883611F08037A0
:1015400019F683E0809330051092090557C088385A
:1015500009F47BC0803919F0803809F0B5CF80914B
:101560000905803208F071C0E091090581E08E0F15
:10157000809309058091BB00F0E0E751FB4F808329
:101580003DC0803B39F0E0F4803A09F479C0883AF4
:1015900009F09ACF84E0809330051092E80410920D
:1015A000E704E0915A05F0915B0519958091E704F5
:1015B00081110FC081E08093E7041092C70409C035
:1015C000803C09F4A6CF883C09F4A3CF883B09F0FE
:1015D0007BCFE091E80481E08E0F8093E804F0E097
:1015E000E953FB4F80818093BB009091E804809188
:1015F000E70429C080910B058093BB0085EC8093A4
:10160000BC0062CF90912D0580912C05981758F55C
:10161000E0912D0581E08E0F80932D05F0E0E45FD1
:10162000FA4F8081E9CFE0912D0581E08E0F809304
:101630002D058091BB00F0E0E45FFA4F808390912C
:101640002D0580912C059817C8F285E8D8CFE09138
:101650002D0581E08E0F80932D058091BB00F0E079
:10166000E45FFA4F808380912F0581115CCF81E088
:1016700080930A0584EA8093BC001092300524CF41
:1016800085EC8093BC001092300580910905803272
:1016900030F4E0910905F0E0E751FB4F10826091D2
:1016A000090570E0E0915805F091590589EE94E044
:1016B00019951092090508CF10922E0534CF1F926C
:1016C0000F920FB60F9211240BB60F922F933F93E8
:1016D0004F935F936F937F938F939F93AF93BF933A
:1016E000EF93FF9348E251E064E271E090E080E024
:1016F0000E948705FF91EF91BF91AF919F918F91CC
:101700007F916F915F914F913F912F910F900BBE01
:101710000F900FBE0F901F9018951F920F920FB64B
:101720000F9211240BB60F922F933F934F935F9319
:101730006F937F938F939F93AF93BF93EF93FF9399
:1017400048EA50E064EA70E083E090E00E94870598
:10175000FF91EF91BF91AF919F918F917F916F9189
:101760005F914F913F912F910F900BBE0F900FBE45
:101770000F901F9018951F920F920FB60F92112481
:101780000BB60F922F933F934F935F936F937F937B
:101790008F939F93AF93BF93EF93FF9348E950E0EC
:1017A00064E970E082E090E00E948705FF91EF918C
:1017B000BF91AF919F918F917F916F915F914F9169
:1017C0003F912F910F900BBE0F900FBE0F901F9067
:1017D00018951F920F920FB60F9211240BB60F920D
:1017E0002F933F934F935F936F937F938F939F9329
:1017F000AF93BF93EF93FF9348E850E064E870E045
:1018000081E090E00E948705FF91EF91BF91AF9139
:101810009F918F917F916F915F914F913F912F9108
:101820000F900BBE0F900FBE0F901F901895109247
:101830006C0510926B0588EE93E0A0E0B0E0809319
:101840006D0590936E05A0936F05B09370058BE2C4
:1018500092E090936A05809369051092F9051092C1
:10186000F80587E492E09093F7058093F60587E208
:101870008093FA0584E18093FF0584E0809300065D
:10188000109201061092890510928D0510928C0518
:1018900010928E058DE392E09093880580938705E2
:1018A000E3EAF5E01082148213821582369685E011
:1018B000EF3DF807B9F789E092E09093EA0580934D
:1018C000E90586E092E09093EC058093EB0584E0D7
:1018D0008093ED0583E08093EE058DE092E0909398
:1018E000E8058093E7058AE090E09093F005809307
:1018F000EF0584EF91E09093F2058093F10510924B
:10190000F5051092F4051092E3051092E40510928B
:10191000E5051092E6051092F30569E773E085E7A7
:1019200095E00E947D096EE773E08BE795E00E94E9
:101930007D0963E873E081E895E00C947D09CF931D
:10194000DF9300D000D01F921F92CDB7DEB77894FE
:1019500084B5826084BD84B5816084BD85B58260B4
:1019600085BD85B5816085BD80916E008160809365
:101970006E001092810080918100826080938100CE
:1019800080918100816080938100809180008160DE
:10199000809380008091B10084608093B100809139
:1019A000B00081608093B00080919100826080934C
:1019B00091008091910081608093910080919000CE
:1019C0008160809390008091A10082608093A1004B
:1019D0008091A10081608093A1008091A00081602E
:1019E0008093A000809121018260809321018091E9
:1019F0002101816080932101809120018160809389
:101A0000200180917A00846080937A0080917A002E
:101A1000826080937A0080917A00816080937A005E
:101A200080917A00806880937A001092C1001092B1
:101A30005F0510925E0510925D0510925C050E9494
:101A4000D80381E893E090935B0580935A0582E880
:101A500093E090935905809358051092FB0580916F
:101A60000006823018F098E09093FB058093FE0505
:101A700062E370E080E090E00E9444036091010620
:101A800086EF95E00E949D0468EE73E080E090E0B0
:101A90000E94440360E386EF95E00E94DD050BE4BD
:101AA00016E4C8010197F1F760E386EF95E00E9424
:101AB000DD05C8010197F1F760E386EF95E00E942C
:101AC000DD0583E592E00197F1F760E286EF95E0AE
:101AD0000E94DD056091FB05606240E086EF95E0C5
:101AE0000E94F60584E08093FC0540E06CE086EF00
:101AF00095E00E94F6050E943F0682E08093FD0576
:101B000040E066E086EF95E00E94F60540E062E086
:101B100086EF95E00E94F6058BE39FE10197F1F7D0
:101B200088E08093010660E086EF95E00E949D04C6
:101B300060E081E00E940D0688E893E00E94AA061A
:101B400061E082E00E940D0689E993E00E94AA0606
:101B500062E083E00E940D068BEA93E00E94AA06F1
:101B600064EF71E080E090E00E9444030E943F0631
:101B700060E086E30E94CC0260E087E30E94CC0232
:101B800060E089E00E94CC0261E08CE10E94CC021E
:101B900061E087E00E94CC0261E089E10E94CC0212
:101BA00061E08AE10E94CC0261E080E30E94CC0205
:101BB00061E081E30E94CC0261E082E30E94CC02FA
:101BC00061E085E30E94CC0261E083E30E94CC02E5
:101BD00061E084E30E94CC0262E086E10E94CC02D4
:101BE00062E087E10E94CC0261E088E20E94CC02C0
:101BF000412C512C32014394AA24AA94BA2C86E198
:101C00000E947502892B09F052C081E08093050281
:101C100080910402882309F4E6C10E943F0660E037
:101C200080E00E940D0682EB93E00E94AA0662ED1E
:101C300073E0CE0101960E947D0961E080E00E9480
:101C40000D0651E05093F3058FB7F8944091650568
:101C50005091660560916705709168058FBF80910E
:101C6000E3059091E405A091E505B091E605481BD8
:101C7000590B6A0B7B0B8091EF059091F005B0E05A
:101C8000A0E084179507A607B707D8F610E0809163
:101C9000ED05181778F4E091E905F091EA05E10FF8
:101CA000F11D62E080810E94CC021F5FF0CF109294
:101CB0000502AECF312C8091EE05381608F061C0D8
:101CC000E32CF12CE091EB05F091EC05EE0DFF1DFE
:101CD00061E080810E94CC02E091EB05F091EC057F
:101CE000EE0DFF1D60E080810E949E02D301C201C3
:101CF000032C04C0880F991FAA1FBB1F0A94D2F798
:101D00004C016C01C094D094212C8091ED052816D3
:101D100008F5022D10E0E091E905F091EA05E00FE9
:101D2000F11F80810E9475020C5F1F4F000F111F71
:101D3000F801E957FA4F892B41F480819181882974
:101D40009929918380832394E0CF808191818C2194
:101D50009D21F7CFE091EB05F091EC05EE0DFF1D15
:101D600061E080810E949E028091EB059091EC05DC
:101D7000E80EF91E60E0F70180810E94CC023394E6
:101D80009ACF07E815E07801F701878D90A1892B9C
:101D900021F4148EB68EA58E11A2F6E0EF0EF11C82
:101DA00083EC95E08E159F0579F7912C8091ED05D8
:101DB000981608F053C0812CC92CD12CCC0CDD1CFA
:101DC000F601E157FA4F6F012091EE05821608F0F7
:101DD00043C0F60160817181082C02C07695679539
:101DE0000A94E2F7929E90011124280D311DE7E834
:101DF000F5E080E0458D568D2417350709F4C5C1FF
:101E00008F5F36968A30B1F760FF24C0E7E8F5E0CF
:101E100090E080E0448D411118C0E091E705F09119
:101E2000E805E20FF31F408156E0589FF001599FEB
:101E3000F00D1124E957FA4F448F368F258F10A2E9
:101E4000178E61E00E949E0105C0019636968A3089
:101E5000910501F78394B8CF9394A8CF80E0F8015F
:101E600091A19111892F0A5F1F4F0E151F05B9F718
:101E70009FB7F8944091650550916605609167059C
:101E8000709168059FBF4093E3055093E40560930C
:101E9000E5057093E605882309F4D3CE8091A80563
:101EA000882309F4CECE8091A6059091A7050197CD
:101EB00009F0C7CE8091A305882309F4C2CE0D8115
:101EC0001E818A32B9F40115110509F4BACE015008
:101ED0001109E981FA81E00FF11F1E830D83108241
:101EE00061E08D810E940D0680E20E94500661E053
:101EF0008D81A5CE8332D1F404301105B9F162E0B1
:101F000080E00E940D0680EC93E00E94AA0664EF38
:101F100071E080E090E00E94440362E080E00E9473
:101F20000D0688EC93E00E94AA068BCE04301105C2
:101F300008F087CE8F8318860F5F1F4FB801CE0140
:101F400001960E945509882369F029813A818D8183
:101F50009E81BE01695F7F4F820F931F0E948C1587
:101F60001E830D838AE20E9450066BCE65E775E002
:101F7000CE0101960E942509811111C06BE775E021
:101F8000CE0101960E942509811109C061E875E022
:101F9000CE0101960E942509882309F451C083E0EF
:101FA00090E090930302809302020E943F0660E05B
:101FB00080E00E940D0683ED93E00E94AA066AEF7E
:101FC00070E080E090E00E9444030E943F06809110
:101FD000040291E089278093040289819A81009705
:101FE00011F00E94101480910502882309F48BC01F
:101FF0000E94A50864EF71E080E090E00E94440335
:102000000E94360864EF71E080E090E00E94440393
:102010000E94BA0764EF71E080E090E00E94440300
:102020000E94AC0664EF71E080E090E00E944403FF
:1020300080E090E0892B09F4E2CD0E940000DFCD22
:102040008091020290910302019790930302809382
:1020500002020E943F0660E080E00E940D0680EED2
:1020600093E00E94AA0661E080E00E940D068EEED9
:1020700093E00E94AA06C0900202D09003020D2CA9
:10208000000CEE08FF084AE0C701B601F7FE0BC0DE
:102090008DE20E94500666277727CB016C197D09D7
:1020A0008E099F094AE00E9466066AEF70E080E0B0
:1020B00090E00E9444038091020290910302892BD8
:1020C00009F08BCF0E943F0660E080E00E940D0681
:1020D0008EEF93E00E94AA0661E080E00E940D0668
:1020E00085E094E00E94AA0664EF71E080E090E051
:1020F0000E9444030E943F0683E090E09093030215
:10210000809302026ACF8091000290910102843094
:10211000910539F50E94A5086AEF70E080E090E033
:102120000E94440387E10E947502892B09F080CF49
:10213000809100029091010201971816190614F57A
:10214000909301028093000287E10E947502892B1F
:1021500009F06ECF6AE070E080E090E00E944403F6
:10216000F3CF8330910519F40E943608D5CF823021
:10217000910519F40E94BA07CFCF019769F60E9422
:10218000AC06CACF84E090E0DBCF61705BCECF932A
:10219000DF93C7E8D5E0269788819981009711F0F1
:1021A0000E94101485E0C537D807A9F7DF91CF91B9
:1021B00008950E941B1108F481E00895E89409C075
:1021C00097FB3EF490958095709561957F4F8F4F6A
:1021D0009F4F9923A9F0F92F96E9BB279395F69580
:1021E000879577956795B795F111F8CFFAF4BB0FFE
:1021F00011F460FF1BC06F5F7F4F8F4F9F4F16C062
:10220000882311F096E911C0772321F09EE8872FEB
:10221000762F05C0662371F096E8862F70E060E0A7
:102220002AF09A95660F771F881FDAF7880F969520
:10223000879597F90895990F0008550FAA0BE0E8C4
:10224000FEEF16161706E807F907C0F01216130678
:10225000E407F50798F0621B730B840B950B39F4B8
:102260000A2661F0232B242B252B21F408950A261E
:1022700009F4A140A6958FEF811D811D08950E944C
:1022800052110C94C3110E94B51138F00E94BC1178
:1022900020F0952311F00C94AC110C94B211112480
:1022A0000C94F7110E94D41170F3959FC1F3950F10
:1022B00050E0551F629FF001729FBB27F00DB11DCA
:1022C000639FAA27F00DB11DAA1F649F6627B00D5A
:1022D000A11D661F829F2227B00DA11D621F739F43
:1022E000B00DA11D621F839FA00D611D221F749F51
:1022F0003327A00D611D231F849F600D211D822F98
:10230000762F6A2F11249F5750409AF0F1F08823BE
:102310004AF0EE0FFF1FBB1F661F771F881F9150EB
:102320005040A9F79E3F510580F00C94AC110C94DD
:10233000F7115F3FE4F3983ED4F386957795679560
:10234000B795F795E7959F5FC1F7FE2B880F911D15
:102350009695879597F9089597F99F6780E870E0BB
:1023600060E008959FEF80EC089500240A9416160B
:10237000170618060906089500240A941216130673
:10238000140605060895092E0394000C11F4882301
:1023900052F0BB0F40F4BF2B11F460FF04C06F5F1D
:1023A0007F4F8F4F9F4F089557FD9058440F551FF3
:1023B00059F05F3F71F04795880F97FB991F61F0C7
:1023C0009F3F79F087950895121613061406551F3E
:1023D000F2CF4695F1DF08C0161617061806991FAA
:1023E000F1CF86957105610508940895E894BB279F
:1023F00066277727CB0197F90895052E97FB1EF4E2
:1024000000940E94141257FD07D00E941C1207FC72
:1024100003D04EF40C9414125095409530952195AC
:102420003F4F4F4F5F4F0895909580957095619500
:102430007F4F8F4F9F4F0895A1E21A2EAA1BBB1BFF
:10244000FD010DC0AA1FBB1FEE1FFF1FA217B30780
:10245000E407F50720F0A21BB30BE40BF50B661F96
:10246000771F881F991F1A9469F76095709580955A
:1024700090959B01AC01BD01CF010895A29FB001D1
:10248000B39FC001A39F700D811D1124911DB29FA8
:10249000700D811D1124911D08955058BB27AA2746
:1024A0000E9465120C94C3110E94B51138F00E946D
:1024B000BC1120F039F49F3F19F426F40C94B211AA
:1024C0000EF4E095E7FB0C94AC11E92F0E94D411B7
:1024D00058F3BA17620773078407950720F079F459
:1024E000A6F50C94F6110EF4E0950B2EBA2FA02D44
:1024F0000B01B90190010C01CA01A0011124FF27B1
:10250000591B99F0593F50F4503E68F11A16F040AB
:10251000A22F232F342F4427585FF3CF46953795AA
:102520002795A795F0405395C9F77EF41F16BA0B6F
:10253000620B730B840BBAF09150A1F0FF0FBB1F1D
:10254000661F771F881FC2F70EC0BA0F621F731F66
:10255000841F48F4879577956795B795F7959E3FC3
:1025600008F0B0CF9395880F08F09927EE0F979554
:10257000879508950E94CE120C94C3110E94BC113D
:1025800058F00E94B51140F029F45F3F29F00C94F7
:10259000AC1151110C94F7110C94B2110E94D4118A
:1025A00068F39923B1F3552391F3951B550BBB2782
:1025B000AA2762177307840738F09F5F5F4F220FC7
:1025C000331F441FAA1FA9F335D00E2E3AF0E0E8BE
:1025D00032D091505040E695001CCAF72BD0FE2F08
:1025E00029D0660F771F881FBB1F2617370748079C
:1025F000AB07B0E809F0BB0B802DBF01FF27935854
:102600005F4F3AF09E3F510578F00C94AC110C945A
:10261000F7115F3FE4F3983ED4F38695779567957D
:10262000B795F7959F5FC9F7880F911D9695879588
:1026300097F90895E1E0660F771F881FBB1F6217A7
:1026400073078407BA0720F0621B730B840BBA0B65
:10265000EE1F88F7E09508950E94DC1188F09F57DF
:1026600098F0B92F9927B751B0F0E1F0660F771FB6
:10267000881F991F1AF0BA95C9F714C0B13091F0AC
:102680000E94F611B1E008950C94F611672F782F8F
:102690008827B85F39F0B93FCCF386957795679571
:1026A000B395D9F73EF490958095709561957F4FDD
:1026B0008F4F9F4F08950E941B1108F48FEF0895CC
:1026C0000E941B11880B990B0895EE0FFF1F881FA6
:1026D0008BBF0790F691E02D19940E943E12B7FF30
:1026E0000895821B930B08950F931F93CF93DF934D
:1026F0008230910510F482E090E0E0910406F091C0
:10270000050630E020E0B0E0A0E0309799F4211514
:10271000310509F44AC0281B390B24303105D8F59E
:102720008A819B816115710589F1FB019383828305
:10273000FE0111C040815181028113814817590760
:10274000E0F04817590799F4109761F012960C932E
:10275000129713961C933296CF01DF91CF911F9160
:102760000F9108950093040610930506F4CF2115E8
:10277000310551F04217530738F0A901DB019A01E6
:10278000BD01DF01F801C1CFEF01F9CF909305063C
:1027900080930406CDCFFE01E20FF31F8193919346
:1027A0002250310939832883D7CF209102063091F6
:1027B0000306232B41F420911B0230911C0230931D
:1027C0000306209302062091190230911A02211566
:1027D000310541F42DB73EB740911D0250911E02C4
:1027E000241B350BE0910206F0910306E217F30774
:1027F000A0F42E1B3F0B2817390778F0AC014E5F71
:102800005F4F2417350748F04E0F5F1F50930306A4
:1028100040930206819391939FCFF0E0E0E09CCF3C
:10282000CF93DF930097E9F0FC0132971382128275
:10283000A0910406B0910506ED0130E020E010976C
:10284000A1F420813181820F931F209102063091E3
:1028500003062817390709F061C0F0930306E093D7
:102860000206DF91CF910895EA01CE17DF07E8F560
:102870004A815B819E0141155105B1F7E901FB8356
:10288000EA8349915991C40FD51FEC17FD0761F4F4
:10289000808191810296840F951FE9019983888335
:1028A000828193819B838A83F0E0E0E012968D9190
:1028B0009C9113970097B9F52D913C911197CD01FB
:1028C0000296820F931F209102063091030628176B
:1028D000390739F6309751F5109205061092040623
:1028E000B0930306A0930206BCCFD383C28340817A
:1028F0005181840F951FC817D90761F44E5F5F4F50
:1029000088819981480F591F518340838A819B8117
:10291000938382832115310509F0B0CFF09305062A
:10292000E09304069ECFFD01DC01C0CF138212822A
:10293000D7CF4F925F926F927F928F929F92AF927A
:10294000BF92CF92DF92EF92FF920F931F93CF939C
:10295000DF938C01009799F4CB01DF91CF911F9108
:102960000F91FF90EF90DF90CF90BF90AF909F902E
:102970008F907F906F905F904F900C947413FC0138
:10298000E60FF71F9C0122503109E217F30708F404
:10299000AEC0D901CD91DC911197C617D70720F1B0
:1029A000C530D10578F0CE0104978617970750F00F
:1029B000C61BD70B2297C193D1936D937C93CF0104
:1029C0000E941014C801DF91CF911F910F91FF90C9
:1029D000EF90DF90CF90BF90AF909F908F907F90BF
:1029E0006F905F904F9008955B01AC1ABD0A4C0147
:1029F0008C0E9D1EA0910406B0910506512C412C11
:102A0000F12CE12C109731F580910206909103068C
:102A10008815990509F05CC04616570608F058C09D
:102A20008091190290911A02009741F48DB79EB7D8
:102A300040911D0250911E02841B950BE817F90767
:102A400008F055C0F0930306E0930206F901718384
:102A50006083B8CF8D919C91119712966C901297CC
:102A600013967C901397A815B90559F56C0142E0AF
:102A7000C40ED11CCA14DB0420F1AC014A195B0955
:102A8000DA011296159780F0628273825183408337
:102A9000D9016D937C93E114F10471F0D701139681
:102AA000FC93EE9312978ECF22968C0F9D1FF90107
:102AB00091838083F301EFCFF0930506E093040642
:102AC00081CF4816590608F42C017D01D3019ACF15
:102AD000CB010E9474137C01009749F0AE01B8014C
:102AE0000E947A15C8010E94101487016BCF10E074
:102AF00000E068CFFB01DC0102C001900D92415063
:102B00005040D8F70895FB01DC018D9101908019A8
:102B10000110D9F3990B0895FB01DC0101900D928E
:102B20000020E1F7089511E0C7E4D1E000E006C01D
:102B3000802FFE010E9465132196011DC834D10724
:0A2B400080E00807A9F7F894FFCF22
:102B4A000400030001012324251E1F2122313233F0
:102B5A003435363738392A3023000006068000001B
:102B6A0000400014005400000000006E0441048478
:102B7A000517043A04270418040000000076037AB3
:102B8A00037E03000000004A0683038405B0036D38
:102B9A006F7573652074726170203A200043415446
:102BAA004348454421200042757A7A65723A204F9B
:102BBA004E20005472617020616374697661746595
:102BCA006420007468657265206973206E6F204DF9
:102BDA0069636520006E616E00696E66006F7666D5
:102BEA0000466C616D652073656E736F72203A20C2
:102BFA00005741524E494E4721200046414E20324D
:102C0A003A204F4E200062757A7A65723A204F4E0A
:102C1A00200069742069732073616665200046414B
:102C2A004E20323A204F4646200062757A7A657203
:102C3A003A204F4646200054656D703A2000686974
:102C4A006768207468616E206E6F726D616C0046F1
:102C5A00414E20313A204F4E006E6F726D616C20EA
:102C6A0074656D7065726174757265200046414EB7
:102C7A0020313A204F4646004D6F6973747572656C
:102C8A003A2000250073746174653A204C4F57202E
:102C9A000050554D50204953204F4E200053746127
:102CAA0074653A204E4F524D414C200050554D50BC
:102CBA00204953204F464620003132333400343500
:102CCA003637003637383900536D617274204972CD
:102CDA007269676174696F6E00616E6420706C61FD
:102CEA006E74206D6F6E65746F720073797374659C
:102CFA006D00456E74657220796F757220496400A3
:102D0A00756E6B6E6F776E002020202020202020A9
:102D1A0020200057656C636F6D65207573657200BE
:102D2A004143434553532044454E49454400417469
:102D3A0074656D707473206C6566743A200048453A
:102D4A004C50203F0043414C4C3A20313635393102
:022D5A00000077
:00000001FF
